:020000040800F2
:1000000000000220FD0E0008F90E00082943000838
:10001000F90E0008F90E0008F90E000800000000B3
:10002000000000000000000000000000F90E0008C1
:10003000F90E000800000000F90E0008AD420008AB
:10004000F90E0008F90E0008F90E0008F90E000874
:10005000F90E0008F90E0008F90E0008F90E000864
:10006000F90E0008F90E0008F90E0008B13E00086C
:10007000BD3E0008B92B0008C93E0008D53E000867
:1000800051E3000889330008F90E0008F90E000852
:10009000F90E0008F90E0008F90E0008F90E000824
:1000A000F90E0008F90E0008F90E0008F90E000814
:1000B0006DD7000879D7000885D70008B933000844
:1000C000F90E0008C5330008F90E000825D0000815
:1000D00031D0000861E1000891E10008C9E10008A1
:1000E000F90E0008F90E000800000000F90E0008E3
:1000F000F90E0008F90E0008F90E0008F90E0008C4
:10010000F90E0008F90E000891D700083DD000084C
:1001100001E2000839E20008F90E0008F90E0008B3
:10012000F90E0008F90E000861D0000895D000080B
:1001300085E30008F90E0008F90E0008F90E000822
:1001400000000000000000000000000000000000AF
:10015000F90E0008F90E0008F90E000871E2000817
:10016000D1330008F90E0008BD420008E142000842
:10017000F90E000805430008F90E0008F90E000802
:10018000F90E0008F90E0008A9E20008E1E20008F3
:1001900049D0000855D00008F90E0008F90E0008F3
:1001A000F90E0008F90E0008F90E0008F90E000813
:1001B000293B0008F90E0008F90E0008F90E0008A6
:1001C000F90E0008F90E0008F90E0008F90E0008F3
:1001D000F90E0008F90E0008F90E0008F90E0008E3
:1001E000F90E0008F90E0008F90E0008F90E0008D3
:1001F000F90E0008F90E0008F90E0008F90E0008C3
:10020000F90E0008F90E0008F90E0008F90E0008B2
:10021000F90E0008F90E0008F90E0008F90E0008A2
:10022000F90E0008F90E0008F90E000800000000A1
:10023000F90E0008F90E000800000000F90E000891
:10024000F90E0008F90E0008F90E0008F90E000872
:10025000F90E0008F90E0008F90E0008F90E000862
:10026000F90E0008F90E0008F90E0008F90E000852
:10027000F90E0008F90E000819E30008000000005C
:10028000F90E0008F90E0008F90E00080000000041
:0802900000000000F90E000857
:100298000348044B834202D0034B03B1184770470D
:1002A800CC030024CC030024000000000548064BC2
:1002B8001B1AD90F01EBA301491002D0034B03B15C
:1002C80018477047CC030024CC030024000000002A
:1002D80010B5064C237843B9FFF7DAFF044B13B186
:1002E8000448AFF300800123237010BDD00300241D
:1002F800000000006C0C010808B5044B1BB1044950
:100308000448AFF30080BDE80840CFE700000000D4
:10031800D40300246C0C010830B510EE104AC4F365
:100328000A53B3F57D7FB7EEC07A83B019D227EEB2
:10033800075BB3F5667F6CD327EE052B25EE021B12
:10034800694B93ED1A3B93ED186B93ED164BA5EEA5
:10035800036BA2EE047BA6EE017BB7EEC70B03B0DE
:1003680030BD40F22E4293425BD85F4991ED086B55
:1003780027EE066BFDEEC66B91ED0A5B16EE903A22
:1003880003F500031B1613F0020F06EE903A01F175
:10039800700208BF0A46D807B8EEE66BA6EE457BA2
:1003A80027EE076B1BD403F0030301EBC30191EDA8
:1003B800002B92ED1A4B92ED185B92ED163BA6EED0
:1003C800045B27EE027B27EE064B26EE046BA4EEB9
:1003D800037BA5EE067BB7EEC70B03B030BD92EDED
:1003E800142B26EE065B92ED127B92ED0E3BA6EEE9
:1003F800027B92ED0C0B92ED104BA6EE030B26EE52
:10040800056BA5EE040BA7EE060BB7EEC00B03B009
:1004180030BD14F0FF4F04BFB7EEC55B8DED015A38
:10042800DBE7B3F5FF6F3BD2304BC4F3836203EBDA
:10043800820153F82220C4F31603C4F3C25043F4D4
:1004480000038340086A0969A0FB035003FB02F21A
:10045800E3FB010202F100518D0F01F04041511AF6
:1004680000F0A0FB224B9FED1E6B05EBD47441EC12
:10047800170B14F0020FA3F1700208BF1346E90727
:1004880027EE067B27EE076B0FD402EBC40292ED32
:10049800002B93ED1A4B93ED185B93ED163B8EE70B
:1004A80003B0BDE8304000F063B893ED141B26EEAE
:1004B800064B93ED125B93ED0E2BA6EE015B93EDCD
:1004C8000C7B93ED103BA6EE027B26EE046BA4EEAC
:1004D800037BA5EE067BB7EEC70B7EE7AFF3008084
:1004E800182D4454FB21193C780901081809010802
:1004F800E809010810B52DED028BB0EE408A0446DC
:1005080000F0BEF8B0EE480ABDEC028B046010BDE6
:1005180028B1F1EE407A27EE800A2220EAE7F0EED1
:10052800407A27EE800A2220E4E700BF9FED010A07
:10053800EEE700BF000000109FED010AE8E700BFEA
:100548000000201A9FED010AE2E700BF00000070DA
:100558009FED060AF7EE007ABFEE007A00284FF00A
:10056800220047FE877A87EE800AC3E70000000072
:10057800F0EE407A30EE407AF4EE677AF1EE10FA57
:1005880087EE070A01D62120B4E7704770B50F4BF4
:100598000F4DAB42A3EB050607D0B610002455F863
:1005A800043B01349847A642F9D810F04FFB094D97
:1005B800094B5E1BAB424FEAA60606D0002455F84D
:1005C800043B01349847A642F9D870BD740C010861
:1005D800740C0108740C0108980C0108830730B5E5
:1005E80047D0541E002A3ED0CAB2034601E0013C5F
:1005F80039D303F8012B9D07F9D1032C2CD9CDB29F
:1006080005EB05250F2C05EB054535D9A4F110029E
:1006180022F00F0C03F1100EE6444FEA121C1A46A2
:10062800C2E90055C2E9025510327245F8D10CF101
:10063800010214F00C0F03EB021204F00F0C13D09C
:10064800ACF1040323F003030433134442F8045BBE
:100658009342FBD10CF003042CB1C9B21C4403F83B
:10066800011BA342FBD130BD64461346002CF4D1D4
:10067800F9E703461446C0E71A46A446E0E700BF78
:10068800014B1868704700BF0400002410B5054CE2
:1006980034B113460A460146022000F09FF810BD07
:1006A800204610BDE5070008844641EA000313F020
:1006B80003036DD1403A41D351F8043B40F8043B61
:1006C80051F8043B40F8043B51F8043B40F8043B24
:1006D80051F8043B40F8043B51F8043B40F8043B14
:1006E80051F8043B40F8043B51F8043B40F8043B04
:1006F80051F8043B40F8043B51F8043B40F8043BF4
:1007080051F8043B40F8043B51F8043B40F8043BE3
:1007180051F8043B40F8043B51F8043B40F8043BD3
:1007280051F8043B40F8043B51F8043B40F8043BC3
:1007380051F8043B40F8043B403ABDD2303211D363
:1007480051F8043B40F8043B51F8043B40F8043BA3
:1007580051F8043B40F8043B51F8043B40F8043B93
:10076800103AEDD20C3205D351F8043B40F8043B63
:10077800043AF9D2043208D0D2071CBF11F8013B61
:1007880000F8013B01D30B8803806046704700BF27
:10079800082A13D38B078DD010F003038AD0C3F136
:1007A8000403D21ADB071CBF11F8013B00F8013B18
:1007B80080D331F8023B20F8023B7BE7043AD9D3D7
:1007C800013A11F8013B00F8013BF9D20B780370AC
:1007D8004B7843708B78837060467047F0B5264C31
:1007E800256883B006460F4605B36C681F2C3FDCAE
:1007F800A6B1D5F8880048B3D0F8001140F82420F5
:100808004FF0010C0CFA04FC00EB84024CEA0101E5
:10081800022EC0F80011C2F8803010D0A31C013499
:100828006C6045F82370002003B0F0BD13481449EC
:10083800216010B10068C1F88800114DD5E7D0F8E3
:10084800043143EA0C03C0F80431E7E70D49CDE968
:10085800002369B14FF48470AFF3008040B10021E8
:10086800C0E94011DDE900236C68C5F88800C5E7D8
:100878004FF0FF30D8E700BFBC060024580A010833
:10088800300600240000000081F0004102E000BFB3
:1008980083F0004330B54FEA41044FEA430594EA38
:1008A800050F08BF90EA020F1FBF54EA000C55EA73
:1008B800020C7FEA645C7FEA655C00F0E2804FEA44
:1008C8005454D4EB5555B8BF6D420CDD2C4480EA26
:1008D800020281EA030382EA000083EA010180EA56
:1008E800020281EA0303362D88BF30BD11F0004FA4
:1008F8004FEA01314FF4801C4CEA113102D04042DA
:1009080061EB410113F0004F4FEA03334CEA133314
:1009180002D0524263EB430394EA050F00F0A7802C
:10092800A4F10104D5F1200E0DDB02FA0EFC22FA27
:1009380005F2801841F1000103FA0EF2801843FA1B
:1009480005F359410EE0A5F120050EF1200E012A0C
:1009580003FA0EFC28BF4CF0020C43FA05F3C0184A
:1009680051EBE37101F0004507D54FF0000EDCF1C3
:10097800000C7EEB00006EEB0101B1F5801F1BD36C
:10098800B1F5001F0CD349085FEA30004FEA3C0C70
:1009980004F101044FEA445212F5800F80F09A8066
:1009A800BCF1004F08BF5FEA500C50F1000041EB6A
:1009B800045141EA050130BD5FEA4C0C404141EB6E
:1009C8000101013C28BFB1F5801FE9D291F0000F69
:1009D80004BF01460020B1FA81F308BF2033A3F118
:1009E8000B03B3F120020CDA0C3208DD02F1140C0F
:1009F800C2F10C0201FA0CF021FA02F10CE002F14A
:100A08001402D8BFC2F1200C01FA02F120FA0CFC42
:100A1800DCBF41EA0C019040E41AA2BF01EB04518B
:100A2800294330BD6FEA04041F3C1CDA0C340EDC89
:100A380004F11404C4F1200220FA04F001FA02F3CC
:100A480040EA030021FA04F345EA030130BDC4F18A
:100A58000C04C4F1200220FA02F001FA04F340EA7F
:100A68000300294630BD21FA04F0294630BD94F030
:100A7800000F83F4801306BF81F480110134013D17
:100A88004EE77FEA645C18BF7FEA655C29D094EA88
:100A9800050F08BF90EA020F05D054EA000C04BF06
:100AA8001946104630BD91EA030F1EBF00210020F1
:100AB80030BD5FEA545C05D14000494128BF41F090
:100AC800004130BD14F580043CBF01F5801130BDF4
:100AD80001F0004545F0FE4141F470014FF000007F
:100AE80030BD7FEA645C1ABF194610467FEA655C30
:100AF8001CBF0B46024650EA013406BF52EA0335D2
:100B080091EA030F41F4002130BD00BF90F0000FBF
:100B180004BF0021704730B54FF4806404F13204FB
:100B28004FF000054FF0000150E700BF90F0000FB4
:100B380004BF0021704730B54FF4806404F13204DB
:100B480010F0004548BF40424FF000013EE700BFAB
:100B580042004FEAE2014FEA31014FEA02701FBF3B
:100B680012F07F4393F07F4F81F06051704732F06D
:100B78007F4208BF704793F07F4F04BF41F40021C4
:100B8800704730B54FF4607401F0004521F0004122
:100B98001CE700BF50EA010208BF704730B54FF0AC
:100BA80000050AE050EA010208BF704730B511F0AD
:100BB800004502D5404261EB41014FF4806404F1E5
:100BC80032045FEA915C3FF4D8AE4FF003025FEA6B
:100BD800DC0C18BF03325FEADC0C18BF033202EBEF
:100BE800DC02C2F1200300FA03FC20FA02F001FA49
:100BF80003FE40EA0E0021FA02F11444BDE600BFEC
:100C080053B94AB9002908BF00281CBF4FF0FF316B
:100C18004FF0FF3000F06AB9ADF1080C6DE904CE71
:100C280000F006F8DDF804E0DDE9022304B07047BF
:100C38002DE9F047089D0E4604460F46002B4AD181
:100C480094468C45B2FA82F260D942B1C2F12003CF
:100C5800974020FA03F30CFA02FC1F4394404FEA32
:100C68001C4E1FFA8CF6B7FBFEF1230C0EFB117716
:100C780043EA074301FB06F098420AD91CEB030339
:100C880001F1FF3780F01581984240F21281023954
:100C980063441B1AA4B2B3FBFEF00EFB103344EA04
:100CA800034400FB06F6A6420AD91CEB040400F133
:100CB800FF3380F00081A64240F2FD806444023890
:100CC80040EA0140A41B00211DB1D4400023C5E91E
:100CD8000043BDE8F0878B4205D90DB1C5E9000195
:100CE80000210846F5E7B3FA83F1002946D1B3425B
:100CF80002D3824200F2F580841A66EB03020120D7
:100D08001746002DE5D0C5E90047E2E7002A40F084
:100D18009380A1EB0C034FEA1C471FFA8CFE0121BC
:100D2800B3FBF7F607FB1630230C43EA00430EFB30
:100D380006F0984208D91CEB030306F1FF3802D2EB
:100D4800984200F2D08046461B1AA4B2B3FBF7F0D3
:100D580007FB103344EA03440EFB00FEA64508D9FE
:100D68001CEB040400F1FF3302D2A64500F2B68062
:100D78001846A4EB0E0440EA0640A5E7C1F1200797
:100D88008B4022FA07FC4CEA030C06FA01FE20FA13
:100D980007F426FA07F344EA0E0400FA01F84FEACA
:100DA8001C404FEA1449B3FBF0FE1FFA8CF600FB17
:100DB8001E3349EA03430EFB06F9994502FA01F28C
:100DC8000BD91CEB03030EF1FF3A80F0858099459F
:100DD80040F28280AEF1020E6344A3EB0909A4B28B
:100DE800B9FBF0F300FB139944EA094403FB06F648
:100DF800A64208D91CEB040403F1FF3068D2A642CE
:100E080066D9023B644443EA0E40A41BA0FB02E6F9
:100E1800B4427346B14652D34FD05DB1B8EB03022A
:100E280064EB090404FA07F722FA01F31F43CC40E4
:100E3800C5E9007400214CE7C2F1200120FA01F352
:100E48000CFA02FC26FA01F1964033434FEA1C479C
:100E58001FFA8CFEB1FBF7F007FB1016190C41EADC
:100E6800064100FB0EF68E4204FA02F408D91CEB88
:100E7800010100F1FF382DD28E422BD9023861448E
:100E8800891B9BB2B1FBF7F607FB161143EA014336
:100E980006FB0EF1994208D91CEB030306F1FF3853
:100EA80014D2994212D9023E63445B1A46EA0041C1
:100EB80036E73946EDE6184602E7F045ADD2BEEB17
:100EC800020366EB0C060138B146A6E74646ECE796
:100ED800034698E74046D3E7D6467EE7644402389F
:100EE80047E708460DE7023E63442DE7704700BF19
:100EF800FEE700BF0B480C4A904203D0121A0B4978
:100F0800FFF7D2FB0A480B4A904203D0121A00217D
:100F1800FFF764FB03F054FCFFF738FB00F026F8FA
:100F2800FEE700BF00000024CC0300249C0C01084D
:100F3800D003002458340024704700BF704700BF16
:100F48008AB1013A70B50C4600255608064808349F
:100F58000FF01CFBB54204ED020A05F1010504ED92
:100F6800010AF3D170BD7047C006002430B530487F
:100F780087B000F089F800212D48002500F07EF99F
:100F880004212B4800F0A4F8294800F09DF8F7EE5A
:100F9800006AF0EE407A274C4FF07C5300229FED18
:100FA800260A204686EEA77AC4ED047AA261636019
:100FB800E36084ED020A84ED057A0FF081FC40F2CB
:100FC8000113172084ED070A2385257000F05EF8C9
:100FD800ADF80000022201A8009901F071FB04237A
:100FE800012216480DEB030101F07EFB134801F0C6
:100FF80071FD9FED130A2046257084ED020A0FF05B
:101008005FFC104B10490A4884ED070A636000F042
:1010180053F80021094801F071FD0B49044884ED9B
:10102800010A00F04DF8012003F0EAF9F1E700BFEA
:10103800EC060024C00600240000C842040700246F
:101048000000DC43CDCCCC3D490F000810B5094C5D
:101058000023094822460949036043610362C363C8
:101068000FF034FC224606490648BDE810400FF050
:101078002DBC00BF00000024EC060024450F00082A
:10108800410F0008C0060024704700BF202882B026
:1010980009D8084B03EB400213F81030507843EAA4
:1010A800002002B0704701230C2043EA002002B060
:1010B800704700BF5C0A0108143001F0D1BA00BFC4
:1010C800143001F0E3BA00BF143001F0C5BA00BF14
:1010D80038B500F1140504462DED028B284601F0C1
:1010E800ADFA284601F0B8FA2846B0EE408A01F079
:1010F800A1FAD0ED007AF8EE677A88EE277ABDEC8F
:10110800028B84ED0E7A38BD10B540F203318EB0F3
:1011180000244FF60B7340F20342ADF80810029911
:1011280009A8ADF81030ADF824300123ADF80C2033
:101138002246009407940C94CDE90544CDE90A446D
:1011480001F0CCFD04A8012322460399009401F084
:10115800C5FD09A801F0D0FE10B901200EB010BDE0
:1011680004A801F0C9FE80F00100C0B240000EB032
:1011780010BD00BF2DE9F04103239AB001270024D8
:10118800149306463A4B1094119340F20453159762
:10119800ADF84830CDE91647FFF7B6FFB842054627
:1011A80043D0022832D1334B40F601320DF12C08DE
:1011B8000094CDF84A304FF60B73ADF8182040462E
:1011C80006993A46ADF82C3023460E94CDE91847D7
:1011D800CDE90C4401F082FD2146404601F098FE1D
:1011E80010A906F13C0002F0EBFE302003224FF07C
:1011F8007E5341460D930E93CDE90B02F26B06F137
:10120800140001F0DFF91AB0BDE8F08140F60132B0
:10121800184B0DF12C08ADF82C200B98CDF84A305E
:10122800CDE9184700F0A4F8DAE71023114A06A917
:1012380006908DF828300DF12C080F4BCDF84A2078
:1012480009940294CDE90730CDE9180402A802F008
:10125800C1F80823029A03A94046ADF80C508DF84E
:101268000E40049505930B9400F0C0F8B8E700BF52
:1012780004020404040604030704010B2DE9F041E9
:10128800394B0446394D40F20112012704F1040894
:101298002DED028B456082B0A36003F58133ADF874
:1012A800042040F2027203F580730020A4F8252080
:1012B800E36040F606632782A4F8293084F8277093
:1012C80084F82B7000918DF8060003F02FFA05467C
:1012D80003F098F86946064610BB0DB304F13000D8
:1012E8008DF8067003F0AAF9072D2ED104F1140524
:1012F8002046FFF73FFF284601F0AEF92846B0EE3A
:10130800408A01F097F9D0ED007AF8EE677A88EE16
:10131800277A84ED0E7A02B0BDEC028BBDE8F0812D
:1013280004F1300003F08AF9072D13D1002EDDD027
:1013380004F1250001F0F6FD04F1290001F0F2FDA9
:1013480004F1120000F074F9D0E74146204602F09B
:101358006FFACBE74146204602F06AFA002EE7D141
:10136800002DE5D0C2E700BF0507050605080509F9
:1013780010B584B00346012403A8ADF80C30ADF8CD
:101388000E4001F0CFFD214603A801F0A9FE20463A
:1013980003F036F8002103A801F0A2FE204603F06E
:1013A8002FF8214603A801F09BFE04B010BD00BF32
:1013B80010B5C2F3002384B00C46017C8DF80D20D3
:1013C80043EA4402FA2402238DF80C2003AA00946D
:1013D80002F090F818B10124204604B010BD04466C
:1013E8000A2003F00DF8204604B010BD034670B57E
:1013F80043F8042B044684B0FA2507C983E807009C
:10140800A1791E23009503AA1A31ADF80C302046A5
:101418000223C9B2217402F06DF810B1012004B0A2
:1014280070BD0A2002F0ECFF4FF4B8520095022379
:10143800ADF80C20204603AA217C02F05BF80028B6
:10144800ECD10A2002F0DCFF41F20272009502237F
:10145800ADF80C20204603AA217C02F04BF80028A6
:10146800DCD10A2002F0CCFF042200950223ADF85B
:101478000C20204603AA217C02F03CF80028CDD19C
:101488000A2002F0BDFF062200950223ADF80C20C9
:10149800204603AA217C02F02DF80028BED10A209C
:1014A80002F0AEFF41F2082200950223ADF80C20AD
:1014B800204603AA217C02F01DF80028AED10A209C
:1014C8000A2602F09DFF0095022303AA217C2046EC
:1014D800ADF80C6002F00EF800289FD1304602F0FB
:1014E8008FFF23790C220095002B217C8DF80C208E
:1014F800204614BF622342236A448DF80D3002232C
:1015080001F0F8FF002889D1304602F079FFA3687E
:1015180000952046E268217C13432279DBB282F0F1
:10152800010243EA82136279524202F02002134315
:101538000E228DF80D3002238DF80C2003AA01F03D
:10154800D9FF00287FF46AAF304602F059FF102215
:1015580000950223ADF80C20204603AA217C01F057
:10156800C9FF00287FF45AAF304602F049FF122124
:1015780000950223ADF80C1003AA217C204601F047
:10158800B9FF00287FF44AAF304602F039FF012244
:1015980009212046FFF70CFF003818BF01203EE75D
:1015A800F0B5214D87B000240126102702A94FF479
:1015B800805228460194CDE90267CDE9046409F018
:1015C800D7FE642003F046FB022302A94FF48052A1
:1015D800284602930594CDE9037609F0C9FE042351
:1015E80002A94FF4805228460397CDE90434032317
:1015F800029309F0BDFE40F23223042202A92846D4
:10160800019310230496CDE90223019B4FF48052E5
:10161800059309F0ADFE40F60601284609F0C8FE1C
:10162800204607B0F0BD00BF3407002400000000CA
:1016380070B51F4B88B008221E4E00214FF400647D
:101648001A614FF0020C03920A225E60202606926D
:101658004022054699600320196210215C6201242A
:10166800C3E905624FF4C072DC60DA6107229FEDBE
:101678000E7BCDE900C20422CDE904016946181D9C
:10168800029283ED0A7B09F049FE38B92846FFF734
:1016980087FF003818BF012008B070BD204608B089
:1016A80070BD00BFAFF30080001000000000000014
:1016B80030070024404100525E4A0023F0B5146808
:1016C8008FB00A93002C40F0B2805B4B01210326B7
:1016D8000C2511600227D3F8D420584842F48052D0
:1016E800C3F8D420D3F8D42002F480520092009A90
:1016F800D3F8E02042F01002C3F8E020D3F8E0204D
:1017080002F010020192019AD3F8E02042F0400260
:10171800C3F8E020D3F8E02002F040020292029AD7
:10172800D3F8E02042F00802C3F8E020D3F8E02024
:1017380002F008020392039AD3F8E02042F4807280
:10174800C3F8E020D3F8E02002F480720492049AEF
:10175800D3F8E02042F08002C3F8E020D3F8E0207C
:1017680002F080020592059AD3F8E02042F02002A8
:10177800C3F8E020D3F8E02002F020020692069A8F
:10178800D3F8E02042F00402C3F8E0204FF6837259
:10179800D3F8E0300B9603F004030C95079302236B
:1017A800079908A9CDE9082304F06CFF48F237131C
:1017B80008A9234808930C950997CDE90A4604F02F
:1017C80061FF4CF2037308A91E480893CDE9097418
:1017D800CDE90B6504F056FF40F2FF6308A91A48EB
:1017E8000893CDE90974CDE90B6504F04BFF4FF67A
:1017F8000C7308A915480893CDE90974CDE90B6560
:1018080004F040FF4FF63F0308A911480893CDE9BB
:101818000974CDE90B6504F035FF202308A90B48AE
:1018280009970C950893CDE90A4604F02BFF0FB0F1
:10183800F0BD00BF2C0700240044025800100258D5
:1018480000180258000C025800200258001C0258C8
:10185800001402582DE9F04F8BB0DFF818830646C4
:10186800BE4800AF1446796202F0ACFCD8F81820E4
:101878004369002A00F09B80D8F81C20D8F804A0FF
:10188800002A15BF4FF010094FF008094FF0040B5C
:101898004FF0020BBAF1000F00F09780A200E94662
:1018A800012B02F1070222F00702ADEB020D684698
:1018B800ADEB020DEB4600F0D581022B00F0528211
:1018C800002B6CD1002C6AD01A46D8ED0C6A9FED1B
:1018D800A47A0146331D36F92250083107EE905A92
:1018E80033F922500232F8EEE77A944267EE877AAB
:1018F80067EEA67A41ED027A07EE905AF8EEE77A9B
:1019080067EE877A67EEA67A41ED017AE3D8594601
:101918002246D0477D6A0021D8ED0D6A9FED977A5F
:101928002B1D90489FED906ADFED905A2CE0F4EE65
:10193800C67AF1EE10FA80F2108267EEA57AFDEE13
:10194800E77A17EE902A12B2DBED017A45F82120EA
:1019580066EEA77AF4EEC77AF1EE10FA40F2F48157
:10196800F4EEC67AF1EE10FA80F2F48167EEA57A09
:10197800FDEEE77A17EE902A12B243F821200231E1
:101988000BF1080B8C420DD9DBED007A66EEA77AD5
:10199800F4EEC77AF1EE10FAC9D80246D4E7224627
:1019A8005946D047CD462C37BD46BDE8F08FD8F80C
:1019B8001C20002AF7D0D8F804A04FF008094FF0EF
:1019C800020BBAF1000F7FF469AF3B62D8F8003020
:1019D800FB61002BE7D06648C7F818D002F05CFC22
:1019E800BBF1020F3B6A386100F03C826A4660082E
:1019F8004946A2EBC40278619546C4F35D02684685
:101A0800A0EBC405AD46EE46ADEB090D00EB82092F
:101A1800EA46ADEB010D09EB82010EEB820C6D4637
:101A2800CAF8081001EB82013D62CAF80C100CEBF1
:101A3800820101EB8202CAE90009C5E900ECC5E9A7
:101A48000212012B00F03883022B00F02E82002BAB
:101A580040F0F781002C00F03F84BBF1020FD8F86A
:101A6800242000F06E843969DAF80C5002EB810EFC
:101A78001A46DAF808100EF10403C7F808A0C7F8E8
:101A880004B08A46FB60331DDFED355AD7F80CB039
:101A980036F92210D8ED0C7A06EE101A33F9221016
:101AA80006EE901A3EF92210B8EEC66A07EE101A32
:101AB800F8EEE66A3BF92210B8EEC77A26EE256AF8
:101AC80066EEA56A27EE257A26EE276A66EEA76AED
:101AD80027EE277A07EE901A51080232F8EEE77AD5
:101AE80000EB810C94428CED006A09EB810C67EEE7
:101AF800A57ACCED006A0AEB810C05EB81018CED2F
:101B0800007A98ED0C7A67EE877AC1ED007ABFD833
:101B1800D7E901BA7A695046D7E9073198473A6A4E
:101B2800BBF1020F98ED0D7AD8F82C30D2E900CE2F
:101B380000F09E843A690021786A03EB82093B6AC7
:101B4800DFED0E6A9FED086A09F10408DFED075A18
:101B5800044ED3E902AB031D75E000BF80070024E3
:101B6800000000380280FFFF04FF7F3F00FEFF46B1
:101B780084070024680700240000003404FF7FBFA6
:101B8800F4EEC67AF1EE10FA80F28C8167EEA57A4F
:101B9800FDEEE77A17EE905A2DB240F821500EEB81
:101BA8000205D5ED007A67EE277AF4EEE67AF1EED3
:101BB80010FA40F25381F4EEC67AF1EE10FA80F290
:101BC8006E8167EEA57AFDEEE77A17EE905A2DB290
:101BD80043F821500AEB0205D5ED007A67EE277A23
:101BE800F4EEE67AF1EE10FA40F23681F4EEC67AB7
:101BF800F1EE10FA80F26A8367EEA57AFDEEE77AD5
:101C080017EE905A2DB25A4449F82150D2ED007A75
:101C180067EE277AF4EEE67AF1EE10FA40F22081C8
:101C2800F4EEC67AF1EE10FA80F2538367EEA57AE5
:101C3800FDEEE77A17EE902A12B248F82120023119
:101C48008C4240F203814A080CEB82059200D5EDE4
:101C5800007A67EE277AF4EEE67AF1EE10FA8FD87A
:101C680035469AE7002C3FF49AAED8ED0C6A8446C4
:101C78001FED3F7A0021331D56F821200CF1080C86
:101C880082F40002A2F5000207EE902A53F8212000
:101C98000231F8EEE77A82F400028C42A2F50002E3
:101CA80067EE877A67EEA67A4CED027A07EE902AFD
:101CB800F8EEE77A67EE877A67EEA67A4CED017A56
:101CC800DAD859462246D0477D6A0021D8ED0D6AF8
:101CD8001FED567A2B1DB6489FEDBC6AB54E28E01D
:101CE800F4EEC67AF1EE10FA32DAF0EE675AFEEE4A
:101CF800E45A15EE902ADBED017A45F8212066EECC
:101D0800A77AF4EEC77AF1EE10FA1FD9F4EEC67A84
:101D1800F1EE10FA24DAF0EE675AFEEEE45A15EE08
:101D2800902A43F8212002310BF1080B8C427FF6F0
:101D380039AEDBED007A66EEA77AF4EEC77AF1EEFB
:101D480010FACDD80246D6E7024616E60246E8E77C
:101D58003246D0E747F6FE720FE647F6FE72F3E525
:101D68003246DEE7002C3FF41AAED8ED0C6A014685
:101D78009FED917A0022331D56F82250083107EE64
:101D8800905A53F822500232F8EEE77A944267EEFE
:101D9800877A67EEA67A41ED027A07EE905AF8EE56
:101DA800E77A67EE877A67EEA67A41ED017AE3D89B
:101DB80059462246D0477D6A0021D8ED0D6A9FED2D
:101DC800827A2B1D7D489FED816A7D4E28E0F4EED6
:101DD800C67AF1EE10FA32DAF0EE675AFEEEE05A01
:101DE80015EE902ADBED017A45F8212066EEA77AF8
:101DF800F4EEC77AF1EE10FA1DD9F4EEC67AF1EED8
:101E080010FA1ADAF0EE675AFEEEE05A15EE902A4A
:101E180043F8212002310BF1080B8C427FF6C2AD4A
:101E2800DBED007A66EEA77AF4EEC77AF1EE10FAE7
:101E3800CDD80246D6E70246EAE73246E8E7324618
:101E4800D0E77A695046396AFB699847D7F818D0BD
:101E58002C37BD46BDE8F08F3546D4E63546B7E6A3
:101E68003246EAE6A2004946650807327D6122F05B
:101E78000702ADEB020D6846ADEB020D6A46ADEB0D
:101E8800090D00EB8509EA46ADEB010D69460A60CC
:101E980002EB850239624A60CAE90009D1E547F6D2
:101EA800FE7595E647F6FE7577E6002C00F014827D
:101EB800BBF1020FD8F8243000F06B823A69C7F8FA
:101EC80008A003EB820EC7F804B0DFED3B5A0022EE
:101ED8000EF10405DAE90213FB608A46331DD7F8D0
:101EE8000CB056F82210D8ED0C7A07EE101A53F8F9
:101EF8002210B8EEC76A07EE101A5EF82210F8EE44
:101F0800C76A07EE101A26EE256A55F82210B8EEB1
:101F1800C77A66EEA56A26EE276A27EE257A66EE68
:101F2800A76A27EE277A07EE901A51080232F8EED0
:101F3800E77A00EB810C94428CED006A09EB810C86
:101F480067EEA57ACCED006A0AEB810C0BEB8101F8
:101F58008CED007A98ED0C7A67EE877AC1ED007AFD
:101F6800BFD8D7E901BA7A695046D7E90731984707
:101F78003A6ABBF1020FD8ED0D7AD8F82C30D2E9C5
:101F880000CE00F0D3823A6900217D6A03EB820912
:101F98003B6ADFED0D6A9FED0D6A09F10408074EF3
:101FA800DFF81CB0D3E902A33B622B1D6BE000BF36
:101FB8007E0080FF82FF7F0000000030007E0080EE
:101FC8000082FF7F0000003404FF7FBF04FF7F3FD3
:101FD800B4EEC67AF1EE10FA6ADAF0EE475AFEEE7F
:101FE800E05A15EE900A45F821000EEB020090ED3C
:101FF800007A27EE877AB4EEE67AF1EE10FA53D932
:10200800B4EEC67AF1EE10FA54DAF0EE475AFEEE64
:10201800E05A15EE900A43F821000AEB020090ED11
:10202800007A27EE877AB4EEE67AF1EE10FA39D91B
:10203800B4EEC67AF1EE10FA80F24681F0EE475A15
:10204800FEEEE05A15EE900A49F82100386A02447B
:1020580092ED007A27EE877AB4EEE67AF1EE10FA7E
:1020680024D9B4EEC67AF1EE10FA80F22B81F0EEA4
:10207800475AFEEEE05A15EE902A48F82120023120
:102088008C427FF6E3AE4A080CEB8200920090ED9A
:10209800007A27EE877AB4EEE67AF1EE10FA97D84E
:1020A8003046A0E73046CFE73046B4E73246E4E7AB
:1020B800584698E75846AEE7002C00F00D81BBF172
:1020C800020FD8F8243000F00D813A690021C7F8D2
:1020D8000CA003EB820C5FED455AC7F808B00CF171
:1020E800040EDAE902231D469246331D56F82120D4
:1020F800D8ED0C7A82F40002A2F5000207EE102A4D
:1021080053F8212082F40002B8EEC76AA2F5000253
:1021180026EE256A07EE102A5CF8212082F40002D8
:10212800F8EEC76A26EE276AA2F5000266EEA56AEF
:1021380007EE102A5EF82120B8EEC77A82F4000272
:1021480066EEA76AA2F5000227EE257A27EE277A1F
:1021580007EE902A4A080231F8EEE77A00EB820B84
:102168008C428BED006A09EB820B67EEA57ACBED0A
:10217800006A0AEB820B05EB82028BED007A98ED80
:102188000C7A67EE877AC2ED007AAFD8D7E902BA3F
:102198007A695046D7E9073198473A6ABBF1020F86
:1021A800D8ED0D7AD8F82C30D2E900CE00F018819D
:1021B8003A6900217D6A03EB82093B6A5FED7E6A1A
:1021C8001FED7E6A09F10408CF4EDFF84CB3D3E95E
:1021D80002A33B622B1D58E0B4EEC67AF1EE10FA6A
:1021E8006ADAF0EE475AFEEEE45A15EE900A45F820
:1021F80021000EEB020090ED007A27EE877AB4EE0C
:10220800E67AF1EE10FA51D9B4EEC67AF1EE10FA88
:1022180050DAF0EE475AFEEEE45A15EE900A43F80B
:1022280021000AEB020090ED007A27EE877AB4EEDF
:10223800E67AF1EE10FA37D9B4EEC67AF1EE10FA72
:102248003CDAF0EE475AFEEEE45A15EE900A49F8E9
:102258002100386A024492ED007A27EE877AB4EEBC
:10226800E67AF1EE10FA23D9B4EEC67AF1EE10FA56
:1022780026DAF0EE475AFEEEE45A15EE902A48F8B0
:10228800212002318C427FF6E1AD4A080CEB820036
:10229800920090ED007A27EE877AB4EEE67AF1EEB6
:1022A80010FA99D83046A2E73046D0E73046B6E76C
:1022B8003246E4E75846B2E7584698E75846C6E734
:1022C8005A46DCE75A46D8E65846BDE647F6FE7554
:1022D80099E447F6FE72B0E42246396A5046FB6933
:1022E8009847B3E598ED0C6A0021DFED886A331D45
:1022F80056F8212082F40002A2F5000207EE902A87
:1023080053F8212082F40002B8EEE77AA2F5000221
:1023180027EE267A07EE902A4A080231F8EEE77A85
:1023280000EB820527EE067A09EB82028C4267EE03
:10233800A67A85ED007A67EE867AC2ED007AD7D85C
:1023480026E71A4698ED0C6ADFED716A331D36F9F7
:10235800221007EE101A33F9221007EE901AB8EE81
:10236800C77A51080232F8EEE77A27EE267A00EBB0
:102378008105944209EB810167EEA67A27EE067A79
:1023880067EE867A85ED007AC1ED007ADFD8FFF72F
:10239800C1BB98ED0C6A0022DFED5E6A331D56F86A
:1023A800221007EE901A53F82210B8EEE77A07EEDB
:1023B800901A51080232F8EEE77A27EE267A00EBF7
:1023C8008105944209EB810167EEA67A27EE067A29
:1023D80067EE867A85ED007AC1ED007ADFD8C2E52E
:1023E8007A6A0021DFED4F6A9FED4F6A131D464858
:1023F8009046494E27E0B4EEC67AF1EE10FA35DA87
:10240800F0EE475AFEEEE45A15EE905A724448F838
:10241800215092ED007A27EE877AB4EEE67AF1EE53
:1024280010FA1FD9B4EEC67AF1EE10FA1CDAF0EE03
:10243800475AFEEEE45A15EE902A43F8212002315D
:102448008C427FF603AD4A080CEB8205920095EDAD
:10245800007A27EE877AB4EEE67AF1EE10FACAD857
:102468000546D3E70246E8E73246E6E73546CDE7D4
:102478007D6A0020DFED2B6A9FED2B6A2B1DDFEDB7
:10248800275A274E29E0F4EEC67AF1EE10FA35DA2B
:1024980067EEA57AFDEEE77A17EE901A09B2724454
:1024A80045F82010D2ED007A67EE277AF4EEE67A46
:1024B800F1EE10FA20D9F4EEC67AF1EE10FA20DA2D
:1024C80067EEA57AFDEEE77A17EE902A12B243F886
:1024D8002020023084427FF6B9AC42080CEB82011E
:1024E8009200D1ED007A67EE277AF4EEE67AF1EE03
:1024F80010FAC8D83146D2E73246E8E747F6FE7107
:10250800CDE747F6FE72E2E77E0080FF0000003468
:10251800000000380000003082FF7F0000FEFF4608
:102528000280FFFF04FF7FBF04FF7F3F7A6A00211C
:102538005FED046A1FED046A131D20489046204E83
:1025480027E0B4EEC67AF1EE10FA35DAF0EE475A23
:10255800FEEEE05A15EE905A724448F8215092ED7A
:10256800007A27EE877AB4EEE67AF1EE10FA1FD9F0
:10257800B4EEC67AF1EE10FA1CDAF0EE475AFEEE27
:10258800E05A15EE902A43F8212002318C427FF65A
:102598005DAC4A080CEB8205920095ED007A27EEB7
:1025A800877AB4EEE67AF1EE10FACAD80546D3E790
:1025B8000246E8E73246E6E73546CDE7007E00808A
:1025C8000082FF7F30B5184C154685B0046004F1D1
:1025D800080EEC460FC98EE80F00D4ED047AF5EE2C
:1025E800C07A8CE80F00F1EE10FA1ADDB7EE006A37
:1025F80094ED057A27EE277AC6EE276A84ED0D7AE0
:10260800C4ED0C6A6DB1204640F8185F01F0DAFDA0
:10261800064903690020064A2162A262E36005B008
:1026280030BD012005B030BD68070024002000300F
:102638000000003000680830704700BFB1F5807FA7
:1026480003680A4628BF4FF48072B1F5807F9A600C
:1026580094BF0020012070470068183001F00ABEBE
:1026680030B5046883B008480D46A368A26A216A99
:102678009B00009004F1180001F0A6FD0020C4E9B9
:10268800000503B030BD00BF5D18000829B103681C
:102698000022596010461A6070470120704700BF39
:1026A800064B302003214FF07E52C3E9020100207F
:1026B80000211A615A61C3E90601704768070024BE
:1026C80000B583B04FF0000E4FF0030C4274ADF824
:1026D8000410BDF8043080F810E0A0F802C00380B0
:1026E80003B05DF804FB00BF2DE9F04F4FF0000880
:1026F800DFF80093B94C8FB003700646B84B174605
:1027080042600D46202241464846C4F86831C4F864
:102718006491CDE90388CDE90588CDE90788CDE93D
:102728000988CDE90B88FDF759FF2022414604F5B9
:10273800A170C4F83181C4F83581C4F83981C4F86E
:102748003D81FDF74BFF84F83071736884F8488247
:10275800002B00F087814346484604F5987105F13F
:10276800100AC6460197EF1855F803B0E2180EF1A3
:10277800010ED7F80CC0D7F80490D7F8088044F8B1
:1027880003B0C2F80CC04FF0000CC2F80490C2F8B5
:1027980008803F8A20F802CB17821AF8032001F834
:1027A800012F62B172684FF001071233964584F821
:1027B8004872D8D3019F00220123FFB20CE077684A
:1027C80012337745CFD894F84832019F002BFFB2D7
:1027D80006BF01220323012384F8812100203278D7
:1027E800C4F8983100237F49C4F8743184F88031E3
:1027F80084F88831C4F88471C4E967334FF48023BE
:10280800C4E95B1308210123C4E95E310021C4E94E
:1028180064019AB100200121013A84F8A431C4E985
:102828006C01082A0CD8DFE812F0FA00F500F00075
:10283800EB00D400CF00C900C200BB0084F8A4217B
:10284800694802F0FFFD034608B1FFBEFEE703A991
:102858006548039302F052FF002840F09F8004234C
:1028680040F2FF720B90CDE9092394F83031002B28
:1028780048D0DFF884A10746DFF88081AAF58E7575
:102888000AF14C096B7B072B07D8DFE803F081843A
:102898007E7B78753E0407230893281F00F042FBCF
:1028A8002B7B042B39DC022B00F3D28000F0CC8088
:1028B80000238AF8003015F8043C002B40D0022B86
:1028C80000F0B280012B40F0DD8015F8033C012BAD
:1028D80000F0C680002B454B18BF0023069306A9BD
:1028E80058F8043B4846079302F018FA002840F0CD
:1028F800C180013794F830210AF1010A1235FBB280
:102908009A42BFD80FB0BDE8F08F0623281F08935E
:1029180000F008FB2B7B042BC5DD03238AF800306D
:10292800AB4600265846013600F0FCFA9AF800300B
:102938000BF1040BB342F5DC15F8043C002BBED1B7
:1029480015F8033C062B00F08780072B00F09880D1
:10295800022B00F09980032B00F09880002B00F0E8
:102968009980012B00F09480042B00F09580052BB2
:102978001F4B18BF0023B1E7052308938DE70423F5
:1029880008938AE70323089387E70223089384E7D9
:102998000023089381E7012308937EE7FFBEFEE743
:1029A80040F2FF324FF4A073C4E96A2348E740F2CB
:1029B800FF124FF49073C4E96A2341E7FF224FF4F2
:1029C8008073C4E96A233BE77F22E023C4E96A23D2
:1029D80036E73F22C023C4E96A2331E7A007002471
:1029E80040400030002002400C0900240002B025BD
:1029F8000000B84F00400030C0080024A00A0108B9
:102A08001F22A023C4E96A231AE70F228023C4E9FE
:102A18006A2315E707226023C4E96A2310E7032223
:102A28004023C4E96A230BE715F8033C042B15D0AF
:102A3800052B1BD0E3B1012B1ED0022B1ED0032B7C
:102A4800164B18BF002349E701238AF8003067E7CF
:102A580002238AF8003063E7114B3FE7114B3DE74B
:102A6800114B3BE7FFB201220323B5E60F4B35E7D5
:102A78000F4B33E7FFBEFEE70E4B2FE70E4B2DE75C
:102A88000E4B2BE7002329E70D4B27E70D4B25E7D6
:102A98000D4B23E70D4B21E70D4B1FE70020903628
:102AA8000800900C1000C0102000F01400018021D4
:102AB8000004002A0008302E001060328000501DEB
:102AC8000040C03A0080F03E000052470000214319
:102AD8000000844B10B5084C40F2FF724FF0011112
:102AE800204602F0B9FD14F83C2C54F8081C204686
:102AF800BDE8104002F032BB0C090024064B0F2938
:102B0800D3F8643198BF03EB41031B8800EE103AF9
:102B1800BBEEC80A704700BFA0070024204B02681C
:102B28009A4200D070471F4B00221F48D3F8D81094
:102B380030B51E4C41F0200183B0C4F8D001092003
:102B480004F5E875C4E97502C3F8D8104FF480603D
:102B5800D3F8D81094F8483201F0200183F001032B
:102B680001911B02C4E977204FF40060C4F8EC31EE
:102B7800019B4FF40053C4F8E4012846C4F8E83137
:102B8800C4E97C2202F0D8FF08B1FFBEFEE704F5D5
:102B9800B673C4F8B851C4F8083203B030BD00BFEA
:102BA800002002400044025840000240A0070024D0
:102BB800014803F053BB00BF70090024414B026871
:102BC8009A4200D070472DE9F0473F4D95F84832BA
:102BD8000BB9BDE8F08795F83021002A48D005F1F7
:102BE8000C0805F5A17605F59877002414E003F0A4
:102BF80001013380A8F1080017F811AC00F070FA51
:102C0800BAF1010F23D895F83021013408F11208E0
:102C18000236A3B29A4229D917F8013F002BF4D003
:102C2800D5F864310021327833F81400D5F86831CA
:102C380003EB041323F8120033883A7801339BB26C
:102C48009A425FFA83F9D2D80B468946D1E7C9F38D
:102C58004001A8F1040000F043FABAF1020FC9F3E9
:102C68008001D0D0404600F03BFACCE795F84832D6
:102C780083F001031548092100221B024FF48064E8
:102C8800C5F8D821C5F8EC314FF40053C5F8DC215C
:102C9800C5F8E831C5E974014FF400610C48C5E98D
:102CA8007841C5E97C2202F047FF08B1FFBEFEE784
:102CB80095F83021D5F864110648BDE8F04702F0D0
:102CC8004DBA00BF00200240A00700244000024087
:102CD800700900240C090024704700BF10B592B099
:102CE8000180ADF80410C9B2149C0B29C460C0E976
:102CF80001232FD090F801E08446BEF10F0F29D8A8
:102D0800022A39D0032A04D0A2F10102B2FA82F2CF
:102D18005209012B0E9205D0A3F10203B3FA83F3F3
:102D28005B095B00022C0F9306D0032C04D0A4F19E
:102D38000104B4FA84F464090A2910940CD9002314
:102D48001846CCF8103001230DA903FA0EF30D93A1
:102D580003F098FC12B010BD5B4B4A1E03EB8123B5
:102D6800CCF81030092A00F29F80DFE802F08E7F4D
:102D780070615243342516071122CAE7534B544851
:102D8800D3F8E02042F48062C3F8E020D3F8E030C2
:102D980003F480630C930C9BD5E74C4B4D48D3F858
:102DA800E02042F40072C3F8E020D3F8E03003F4E6
:102DB80000730B930B9BC6E7444B4748D3F8E020BE
:102DC80042F48072C3F8E020D3F8E03003F4807353
:102DD8000A930A9BB7E73D4B4048D3F8E02042F0FE
:102DE8008002C3F8E020D3F8E03003F080030993B1
:102DF800099BA8E7354B3A48D3F8E02042F0400257
:102E0800C3F8E020D3F8E03003F040030893089BB0
:102E180099E72E4B3348D3F8E02042F02002C3F85C
:102E2800E020D3F8E03003F020030793079B8AE7FC
:102E3800264B2D48D3F8E02042F01002C3F8E020DA
:102E4800D3F8E03003F010030693069B7BE71F4B93
:102E58002648D3F8E02042F00802C3F8E020D3F86F
:102E6800E03003F008030593059B6CE7174B2048F7
:102E7800D3F8E02042F00402C3F8E020D3F8E030B1
:102E880003F004030493049B5DE7104B1948D3F83F
:102E9800E02042F00202C3F8E020D3F8E03003F06B
:102EA80002030393039B4EE7084B0748D3F8E0203F
:102EB80042F00102C3F8E020D3F8E03003F0010348
:102EC8000293029B3FE700BF0000025800440258EB
:102ED800002802580024025800200258001C0258FA
:102EE800001802580014025800100258000C02582A
:102EF800000802580004025808B501214378006907
:102F0800994089B203F0F8FE003818BF012008BDC7
:102F180001230A464178006903FA01F189B203F0F6
:102F2800F1BE00BF8378022B30B504468FB039D08C
:102F3800032B00F0D180A3F10102B2FA82F2520908
:102F4800E3780A92012B05D0A3F10203B3FA83F3C5
:102F58005B095B0000222046CDE90B3201F058FDE9
:102F68000546204601F05CFD23780990082B13D80C
:102F7800DFE803F02D405366798C9F051A00574B04
:102F8800D3F8E02042F08002C3F8E020D3F8E03024
:102F980003F080030793079B09A9284603F072FBF7
:102FA8000FB030BD1122CBE74C4B09A92846D3F806
:102FB800E02042F48072C3F8E020D3F8E03003F454
:102FC80080730893089B03F05DFB0FB030BD434B43
:102FD80009A92846D3F8E02042F00102C3F8E0200E
:102FE800D3F8E03003F001030093009B03F04AFBA1
:102FF8000FB030BD394B09A92846D3F8E02042F07C
:103008000202C3F8E020D3F8E03003F00203019392
:10301800019B03F037FB0FB030BD304B09A92846A0
:10302800D3F8E02042F00402C3F8E020D3F8E030FF
:1030380003F004030293029B03F024FB0FB030BD9E
:10304800264B09A92846D3F8E02042F00802C3F825
:10305800E020D3F8E03003F008030393039B03F068
:1030680011FB0FB030BD1D4B09A92846D3F8E0204D
:1030780042F01002C3F8E020D3F8E03003F0100368
:103088000493049B03F0FEFA0FB030BD134B09A95B
:103098002846D3F8E02042F02002C3F8E020D3F815
:1030A800E03003F020030593059B03F0EBFA0FB023
:1030B80030BD0A4B09A92846D3F8E02042F0400267
:1030C800C3F8E020D3F8E03003F040030693069BF2
:1030D80003F0D8FA0FB030BD1A4631E70044025861
:1030E80070B506460D4601F093FC0446304601F0E3
:1030F80097FC2A1E0146204618BF0122BDE87040F1
:1031080003F000BE70B5002386B012220446039374
:10311800CDE901230368032B01D804230493261D5A
:103128000634304601F074FC0546304601F078FC60
:10313800034669462846009303F0A4FA204601F0A6
:1031480067FC034620461C4601F06AFC69460346B4
:103158002046009303F096FA06B070BD634A0368F0
:10316800934210B58CB028D0614A934258D0614A36
:10317800934200F09480604A934201D00CB010BD95
:103188005E4C5F48D4F8E03043F00203C4F8E03006
:10319800D4F8E03003F002030A930A9BFFF7B2FF6A
:1031A800D4F8F43043F08003C4F8F430D4F8F430A1
:1031B80003F080030B930B9BE0E7504C5148D4F885
:1031C800E03043F00203C4F8E030D4F8E03003F014
:1031D80002030193019BFFF795FFD4F8E830002222
:1031E8001F2043F400131146C4F8E830D4F8E8303F
:1031F80003F400130293029BD4F8D83043F0010380
:10320800C4F8D830D4F8D83003F001030393039BF3
:1032180002F0E0FA1F200CB0BDE8104002F016BB27
:10322800364C3948D4F8E03043F08003C4F8E03035
:10323800D4F8E03003F080030493049BD4F8E03022
:1032480043F00203C4F8E030D4F8E03003F002039E
:103258000593059BFFF756FFD4F8E830002221209C
:1032680043F480031146C4F8E830D4F8E83003F496
:1032780080030693069BD4F8D83043F00103C4F8C2
:10328800D830D4F8D83003F001030793079B02F035
:10329800A1FA21200CB0BDE8104002F0D7BA1B48B3
:1032A800FFF730FF154B00224820D3F8E8401146BD
:1032B80044F40004C3F8E840D3F8E84004F40004F8
:1032C8000894089CD3F8D84044F00104C3F8D840C7
:1032D800D3F8D83003F001030993099B02F07AFA76
:1032E80048200CB0BDE8104002F0B0BA00540040CD
:1032F80000580040005C0040001C00580044025880
:10330800780C0024F0090024C80A0024A00B00242B
:10331800F0B5002287B0184B1021CDF802206F4677
:10332800CDF806209C46CDF80A206E46CDF80E2032
:103338000CF11805CDF812200CF1300EADF816205E
:10334800FF220E4B6C46ADF800101A700FCFACE898
:103358000F0097E803008CE803000FCE0FC596E82E
:10336800030085E803000FCCAEE80F0094E80300E3
:103378008EE8030007B0F0BD54000024EC090024D7
:1033880010B5EFF3108472B6074B1A78120602D5FF
:1033980004B962B610BD1B78D820044A5BB200FBA2
:1033A800032002F05BFFF3E7EC090024040A002481
:1033B800014804F02BBB00BF7C0A0024014804F03C
:1033C80025BB00BF540B0024014804F01FBB00BFFD
:1033D8002C0C00242DE9F0410F68D8253C4E84B010
:1033E80007FB05F5032F06EB0503036058DCCA68E5
:1033F8000C46012A54D84FD020689C4661684FF08B
:10340800D808A2680DF1100EE36808FB0768ACE85D
:103418000F00304B227C8CF80020D8F808C00FCB66
:103428000EE90F000EEB8703BCF1010F53F8103CB7
:10343800C8F88C3042D0BCF1020F35D0BCF1000F77
:1034480008D101F071F9244B98420CBF234B244B4F
:10345800C8F890308C35D823217C002203FB076301
:10346800012035444900C3E926022846C3F89410D0
:10347800C3E92822C3E92A2204F0C0F880B901462A
:10348800284604F0CFFA58B90146284604F0F4FA61
:10349800003818BF012004E00A7C103A672AABD92B
:1034A800012004B0BDE8F08101F03EF90A4B9842D2
:1034B8000CBF0C4B0C4BC8F89030CBE701F034F93B
:1034C800054B98420CBF094B094BC8F89030C1E72F
:1034D800F0090024E0080108000E27075F43906008
:1034E8008A62E030200BA0101A0980102D0FB0302E
:1034F8003211D0202DE9F041D0F8008082B00D467D
:1035080017461E4608F18C04204604F087FA202846
:10351800FAD1D8F80C3073B96D002046089C3346B0
:103528003A46A9B2009404F0BFF8003818BF012049
:1035380002B0BDE8F081089B32463946204604F0C7
:103548007FF9F2E7044B10221A7483F8E82083F815
:10355800C02183F898227047F009002430B5002371
:1035680095B04FF48071062204460B93069213938C
:10357800CDE90C13CDE90E33CDE9113301F0D6F8BE
:1035880007282AD004F1100541F2883206A92846F6
:1035980005F0A4F828B1012384F85C30012015B0A7
:1035A80030BD0223102206A9284602920022CDE946
:1035B8000033012303934FF48003CDE9042305224C
:1035C8004FF0807306926A460F9341F2883305F0F4
:1035D80015FA0028DFD115B030BD032384F85C301C
:1035E800DCE700BF0000000070B50023A4B04FF076
:1035F80080724FF480750446ADF806301B93CDE910
:103608001E320122CDE91C53CDE92023CDE9223316
:10361800002942D0F02300F1100516AEADF80630AF
:10362800C02341F2883231462846169305F056F8F1
:1036380028B1012384F85C30012024B070BD41F228
:1036480088320DF10601284605F0B6F80346002831
:10365800EFD14FF4807105222846012508921022E7
:1036680010930D93159302930595CDE90E139FEDD5
:103678001E7B4FF08071CDE91333119141F28833ED
:1036880008A9CDE9035202AA8DED067B05F0B6F92B
:103698000028D2D084F85C50CEE700F1100516AEB1
:1036A800612341F2883231462846169305F016F810
:1036B8000028BED141F288320DF10601284605F0F6
:1036C80009F90028B5D1BDF80630204623F0780363
:1036D80043F04003ADF80630FFF740FF00289FD0C5
:1036E800A7E700BFAFF30080000000000000400023
:1036F8002DE9F04F00234FF4807601254FF08078B4
:1037080004462DED028BABB08DF80730219313934F
:103718001B9322961C95CDF89480CDE92333CDE9EF
:103728002653CDE92833CDE91463CDE91633CDE925
:10373800193306230E9300F0F9FF072808D004F187
:10374800100741F288320EA9384604F0C7FF40B18D
:10375800012384F85C3001202BB0BDEC028BBDE85E
:10376800F08F02234FF010094FF0050A08AA0EA99E
:1037780038460B95CDF85C80CDF82890CDF838A068
:103788009FED298BCDE9083341F288338DED0C8B01
:1037980005F034F90028DBD141F2883238461CA9FB
:1037A80004F09CFF0028D3D14FF0400B41F288323F
:1037B8000DF1070138468DF807B004F0FDFF002829
:1037C800C6D141F288331CA902AA3846CDF870A0A8
:1037D800CDF89480CDE902BBCDE904958DED068B3B
:1037E80005F00CF903460028B2D1139308AA1B93DD
:1037F8000EA938461496CDF838A0CDF85C80CDF8DF
:1038080028900B95CDE91533CDE91933CDE9083565
:1038180041F288338DED0C8B05F0F0F800289BD031
:1038280084F85C5097E700BF0000000000004000EB
:103838002DE9F0435C4CA3B00E46046000F076FF1F
:10384800072800F0A480306825467168B26807C56B
:10385800B389284620F8043B267B677B04F020FFC9
:10386800E0B9524B012E4FF00108E06123610CBF13
:103878004FF400034FF48013C4E9058893FAA3F3C7
:10388800B3FA83F34FF48079013BC4F82490C4E978
:103898000B00281D236204F095FE38B1012384F83B
:1038A8005C300126304623B0BDE8F08366230B90D8
:1038B800139041F2883206A90693CDE90C90CDE920
:1038C8000E00CDE91100281D04F008FF0028E5D1FD
:1038D800992341F2883206A9281D069304F0FEFEBA
:1038E8000028DBD105231C9019906A4614934FF0E9
:1038F8008073219014A91D931023CDF80C80029396
:1039080041F288339FED247BCDE91A90CDE91F0061
:10391800CDE90008281D8DED047B05F06FF800281F
:10392800BCD131462046FFF75FFE0028B6D12046BD
:10393800FFF7DEFE06460028B0D1002FB2D1EB23F8
:1039480006AA14A9281D14934FF44063CDF8689073
:103958001B934FF40053189617934FF440431C934E
:10396800A0231693062319934FF080539FED0C7BE9
:1039780021934FF04073CDE91F661D938DED067BB3
:1039880005F0CAF800288DD084F85C8089E7032305
:1039980084F85C3085E700BF0000000000004000AC
:1039A8000000000000000000500D002400500052EC
:1039B8002DE9F04F8FB0414B0024026800AF9A42C6
:1039C8007C63C7E90944C7E90B4403D03C37BD46CB
:1039D800BDE8F08F3A4B40F609213A48EA46D3F859
:1039E800D42007F11C0607F1220B4FF0020942F41C
:1039F80080424FF00308C3F8D420D3F8D42002F44F
:103A08008042BA60BA68D3F8E02042F04002C3F8B6
:103A1800E020D3F8E02002F04002FA60FA68D3F818
:103A2800E02042F02002C3F8E020D3F8E02002F0C2
:103A380020023A613A69D3F8E02042F01002C3F854
:103A4800E020D3F8E02002F010027A617A69D3F816
:103A5800E02042F00202C3F8E020D3F8E030F86139
:103A680003F002033984BB61174B7B60BB697B6839
:103A780053F8040F7B6000F0CBFF7B68054618689D
:103A880000F0CEFF16F8013B786207F124012846C2
:103A9800C7F830807B63C7E90A9402F0F3FD5E45FE
:103AA800E5D100225C20114601F094FE5C2001F073
:103AB800CDFE3C37D546BD46BDE8F08F00500052DC
:103AC800004402580A0A0909AC0D0024114B026887
:103AD8009A4200D07047104A70B5D2F8D4300F4CD3
:103AE80023F4804304F11806C2F8D43054F8040FC4
:103AF80000F08EFF0546206800F092FF0146284638
:103B080002F0CEFFB442F1D15C20BDE8704001F074
:103B1800ABBE00BF0050005200440258AC0D002458
:103B2800014805F087B800BF600D0024084B1A1D36
:103B3800981D03F1080110B49C1C9A6603F10A024F
:103B4800C3E91834C3E91B015DF8044B5A67704791
:103B5800500D00242DE9F043821D05468BB0031D4E
:103B680005F10A010830CDE9052305F10C02AB691E
:103B7800CDE907010992002B3ED0EB69B3FA83F82F
:103B88004FEA58180123022205AE0AAF4FF0060982
:103B98000393CDE9012313E02B680BB3012B02D16A
:103BA80022B30A230493204600F03AFF0346204636
:103BB800009300F02DFF694602F064FDBE4212D06A
:103BC80056F8044B2B7922789342E5D169796378CA
:103BD8009942E1D1B8F1000FF0D02B68002BDDD16C
:103BE800CDF81090DFE70BB0BDE8F0836378022BC7
:103BF8000CBF08230A23D5E74FF00108C2E700BF2E
:103C0800A04A0368934270B505468AB07FD0203237
:103C180093427CD09C4A934204D02032934201D0F4
:103C28000AB070BD994C9A48D4F8E03043F00103CB
:103C3800C4F8E030D4F8E03003F001030593059BA5
:103C4800D4F8E03043F00803C4F8E030D4F8E030AA
:103C580003F008030693069BD4F8E03043F04003D2
:103C6800C4F8E030D4F8E03003F040030793079B32
:103C7800D4F8F03043F40003C4F8F030D4F8F0304E
:103C880003F400030893089BFFF764FFD4F8D820D7
:103C9800804B42F001022968D3F85C02C4F8D820AE
:103CA800D4F8D82002F001020992774A099C91427F
:103CB80000F0AB80D3F88022013A18BF01229201AC
:103CC800002840F0CC807448582103F22C4403F5B6
:103CD8004775C3F82C0400232046C4E901124FF4A9
:103CE80080524FF48061636262614FF48042C4E99C
:103CF80003314FF48073C4E906234FF40033236281
:103D080001F01AFF002800F09580FFBEFEE75F4C27
:103D1800604ED4F8E030304643F00103C4F8E03098
:103D2800D4F8E03003F001030093009BD4F8E030AE
:103D380043F01003C4F8E030D4F8E03003F0100387
:103D48000193019BD4F8E03043F04003C4F8E0301D
:103D5800D4F8E03003F040030293029BD4F8F0302B
:103D680043F48003C4F8F030D4F8F03003F480034F
:103D78000393039BFFF7EEFED4F8D830296843F08D
:103D88000103404A3068C4F8D8309142D4F8D8309A
:103D980003F001030493049B27D0736A013B18BF07
:103DA80001239B01002852D13B4A06F5E8745821AB
:103DB800C036C6F8102100222046C4E901134FF48A
:103DC80080534FF48061626263614FF48073C4E989
:103DD80003214FF48042C4E906234FF400332362E1
:103DE80001F0AAFE08B3FFBEFEE7336A013B18BF25
:103DF80001239B0118BB02F5284206F5AC74572134
:103E080028360C32C6F83021D5E7D3F87C22013A9F
:103E180018BF0122920158BB2048572103F56D7441
:103E280003F52175C3F8B40355E7C6E92044A66332
:103E38000AB070BDC5E92044A5630AB070BD184A30
:103E480006F5AC7459212836C6F83021B3E7154A6F
:103E580006F5E8745A21C036C6F81021ABE71148B8
:103E68005A2103F22C4403F54775C3F82C0432E7B2
:103E78000B48592103F56D7403F52175C3F8B40394
:103E880029E700BF04580140045C0140004402587F
:103E980024100024C80D002428000240100002400D
:103EA8005800024070000240014802F0D7B900BF34
:103EB800200F0024014802F0D1B900BF980F002458
:103EC800014802F0CBB900BF7C110024014802F080
:103ED800C5B900BFF41100241A4A0368934210B40C
:103EE8000BD02032934208D0174A934216D0203282
:103EF800934213D05DF8044B7047144B0022D3F85B
:103F08005442C3F85822D3E99201002CF2D0D3F8D6
:103F1800502223465DF8044B520818470B4B0022E9
:103F2800D3F8B044D3F8A404D3F8A814C3F8B4243D
:103F3800002CDFD0D3F8AC2423465DF8044B52089C
:103F4800184700BF04580140045C0140C80D002414
:103F5800184A0368934210B40BD02032934208D019
:103F6800154A934217D02032934214D05DF8044B7F
:103F78007047124BD3E99424D3E992015208C3F84D
:103F88005822002CF2D0234601EB820100EB82007C
:103F98005DF8044B1847094BD3F8AC24D3F8B04468
:103FA8005208D3F8A404D3F8A814C3F8B424002CF6
:103FB800E9D1DBE704580140045C0140C80D002446
:103FC8002DE9F04F0C684FF41777794E87B004FB52
:103FD80007F7012C06EB0708C0F8008000F39F8064
:103FE8004FF0000907F512730D468E4646F8039008
:103FF8003344C446C3F80490C8F8509268A3D3E980
:10400800002369A1D1E90001CDE9022306AB03EB46
:104018008403CDE9040153F810BC53F808ACBEE89A
:104028000F00ACE80F00BEE80F00ACE80F009EE8F8
:104038000300C8F828B0C8F8C0A08CE803002B69B2
:10404800042B0DD8DFE803F07F89930376004FF443
:1040580017734BF6803203FB04639A64C3F8E020BD
:10406800AA69296A002A56D000294FF0010214BF14
:10407800032102214FF4177303FB0463C3E90B12F6
:10408800EA69696A002A4ED1003918BF01214FF444
:10409800177303FB0463C3E931126B69022B06D85B
:1040A800444A12F80390444A52F8233001934FF4DB
:1040B80017730022414907F1280004FB03F3304439
:1040C80003F1380E03F1500C03F1D00503F1E804B5
:1040D80041F80E2033448E44CEF804205A645A63C3
:1040E80041F80C208C44CCF80420DA654A510D4480
:1040F8006A60C3F8DC20C3F8CC200A510C4401994B
:104108006260C3F8F42002234A4606F0BFFE002886
:1041180037D0FFBEFEE7003918BF0121AAE701200A
:1041280007B0BDE8F08F00294FF0010214BF03214A
:104138000221ACE74FF41773214A03FB04639A6426
:10414800C3F8E0208CE74FF417734FF4FA5203FBDF
:1041580004639A64C3F8E02082E74FF417734FF4BE
:104168007A5203FB04639A64C3F8E02078E74FF4BB
:1041780017734FF4FA4203FB04639A64C3F8E02010
:104188006EE707F1C00002234A460199304406F061
:104198007DFE0028C4D0FFBEFEE700BFAFF300805D
:1041A80004580140045C014024580140245C01404B
:1041B800C80D0024000B0108F40A0108CC0D0024E6
:1041C8000077010000687047F8B504689DB20F4693
:1041D8001646C4F85032069BC4F85432A369012B22
:1041E800C4E9921222D0636A2A46012B0FD03146C5
:1041F80004F1C00006F0F8FE236A2A46012B0ED00F
:10420800314604F1280006F0EFFE0020F8BD04F165
:10421800C00006F073FF236A2A46012BF0D1394605
:1042280004F1280006F06AFF0020F8BD236A2A4638
:10423800012B0FD0314604F1280006F0D5FE636A41
:104248002A46012B0ED0314604F1C00006F0CCFE00
:104258000020F8BD04F1280006F050FF636A2A46E2
:10426800012BF0D1394604F1C00006F047FF0020C9
:10427800F8BD00BF03681B69042B05D8044A02EB8C
:10428800830393ED000A70479FED020A704700BF51
:10429800E00A010800803B470368D3F858027047DA
:1042A800704700BF08B500F0C3FCBDE8084001F046
:1042B80055BB00BF064808B503680BB102F026FDE0
:1042C800044803681BB1BDE8084003F001BC08BD01
:1042D8009016002488120024064808B503680BB11C
:1042E80002F014FD044803681BB1BDE8084003F060
:1042F800EFBB08BD9016002488120024064808B5B4
:1043080003680BB102F002FD044803681BB1BDE865
:10431800084003F0DDBB08BD901600248812002475
:10432800364BDA6A520062D59A6A9A6A9A6A9B6A26
:10433800180600D500BE314B9B6A990600D500BE11
:104348002E4B9B6ADA0600D500BE2C4B9B6A1B07D6
:1043580000D500BE294B9B6A980700D500BE274BA5
:104368009B6AD90700D500BE244B9B6A1A0400D566
:1043780000BE224B9B6A9B0400D500BE1F4B9B6A64
:10438800D80400D500BE1D4B9B6A190500D500BE98
:104398001A4B9B6A5A0500D500BE184B9B6A9B05B1
:1043A80000D500BE154B9B6AD80500D500BE134B3F
:1043B8009B6A990100D500BE104B9B6ADA0100D5B3
:1043C80000BE0E4B9B6A1B0300D500BE0B4B9B6ABD
:1043D800580300D500BE094B9B6A990300D500BE5F
:1043E800064B9B6ADA0306D400BE00BEFEE7DB6A12
:1043F8009B07FAD5F8E700BEF6E700BF00ED00E03E
:1044080000F028BC0A4B9B6803F17843B3F5003FE2
:104418000BD3084B986848B19868012806D098686B
:10442800022803D09868032070470120704700BF16
:1044380000ED00E0000080382DE9F041CEB00446E0
:104448004C2200210AA8FCF7C9F82022002102A862
:10445800FCF7C4F8BC2200211EA8FCF7BFF8022014
:1044680003F0BEFF2368012B4FF0000350D0504AE1
:1044780002250193C820D16A4E4B21F00101D16277
:10448800D26A02F0010201929A6942F440429A61AA
:104498009B6903F440430193019B464A936999043D
:1044A800FCD545490224002201268B6A4FF00408F6
:1044B800082723F0030323438B62052316900AA8D9
:1044C80018934FF48033109617941994CDF85480AC
:1044D8001A97CDE91B222122CDE91344CDE90A23FD
:1044E80004F0B0FC00B1FEE7402329463F224FF418
:1044F80080650993049002A805970895CDE90633CD
:104508000323CDE9022304F0B7FF0346B8B1FEE761
:10451800284A04250093F0209169254B41F4404135
:104528009161926902F440420092DA6A42F0010213
:10453800DA62DB6A03F001030093009BADE74FF4F6
:1045480080324FF4805122941EA846922F943394BF
:10455800062435912197CDF8A8802C951F9623968F
:10456800CDE92531CDE93032CDE92D3300224FF4A4
:104578008071CDE93B334FF4401343911021CDE9CD
:104588003E2340F2271280232991249334930C234D
:10459800CDE92742202220932B92084A1E9205F04B
:1045A800B5F900B1FEE703F041FF4EB0BDE8F08178
:1045B8000004005800480258004402580F130F0323
:1045C80070B584B0012401F077F94FF480764FF08C
:1045D8004052194B6846ADF80040019200250293FD
:1045E800039601F087F9192368468DF80F408DF876
:1045F80008304FF04043ADF80D6001938DF801404D
:104608008DF80A5001F076F902230B2268468DF8DE
:104618000F508DF801304FF062538DF80820019348
:10462800ADF80D408DF80A4001F064F9042001F05E
:1046380051F904B070BD00BF0E00010330B50C463F
:10464800054685B0D1E9000185E8030000F0C0FA0D
:10465800A379A3B30AF016F8FEF75AFE08F09EFCF9
:1046680009F0FCFC23798BBB63799BB1BFF34F8FB7
:10467800BFF36F8F2A4B0022C3F85022BFF34F8F2E
:10468800BFF36F8F5A6942F400325A61BFF34F8FFC
:10469800BFF36F8F4FF0FF320023002400256946D7
:1046A800204802928DF80C30CDE9004509F072F8E7
:1046B8001C4809F0D7F808F0E5F805B030BD2846E1
:1046C800FFF7BAFE2846FFF77BFFC3E7144900232C
:1046D800C1F88430BFF34F8FD1F8805043F6E07EA5
:1046E800C5F34E3CC5F3C9054FEA4C1C0CEA0E0055
:1046F8002B4640EA8372013BC1F860225A1CF8D16C
:10470800ACF1200C1CF1200FF0D1BFF34F8F4B6997
:1047180043F480334B61BFF34F8FBFF36F8FA3E731
:1047280000ED00E08012002404F0D8BF1C4B9B6809
:1047380003F17842B2F5003F25D3B3F5803F20D38B
:1047480003F16042B2F5003F1FD303F15C42B2F5BA
:10475800002F1CD303F17042B2F5902F19D303F147
:104768004842B2F5803F16D303F18042B2F1806F20
:1047780013D303F1E043B3F5000F34BF072008203B
:1047880070470120704700207047022070470320BF
:10479800704704207047052070470620704700BF07
:1047A80000ED00E003480023034A044903600CF0CD
:1047B8008DB800BF8012002400000024A942000820
:1047C80010B4204C0022204B83B0D4F888001F4935
:1047D80040F47000C4F8880018681D4C40F00100CF
:1047E80018601A611868014019609A61DA611A62E2
:1047F8009A62DA621A635A639A63DA631A645A64C9
:10480800196821F4802119601A66D3F8DC2042F077
:104818006042C3F8DC20D3F8DC300193019B2368A5
:104828006FF30F03B3F1005F03D20A4B0122C3F801
:104838000821044B4FF000629A6003B05DF8044B06
:10484800704700BF00ED00E0004402587FEDF6EA33
:104858000010005C0080005100F57171D0F804046C
:1048680007F00EBCC1EBC10300EB8303D0F80404CE
:10487800D3F8082207F032BCC1EBC10300EB830375
:10488800D0F804049A6C07F063BC00BFD0F80404A5
:1048980007F0FEBCC16810B5044619B1022900D062
:1048A800FEE70121D4F8040407F0DCFCD4F8040482
:1048B800BDE8104007F0AEBC10B50446D0F80404BB
:1048C80007F0D4FC2268D2F8003E43F00103C2F896
:1048D800003E236A23B1034A136943F006031361B8
:1048E80010BD00BF00ED00E0D0F8040407F0C8BC1C
:1048F800D0F8040407F0DCBCD0F8040407F0D6BCF8
:10490800D0F8040407F0D6BCD0F8040407F0D4BCEF
:104918009446D0F898021A4608B5634603F050FC4E
:1049280018B102280CBF0120022008BD08B5D0F834
:10493800980203F0D3FC18B102280CBF0120022012
:1049480008BD00BF08B5D0F8980203F00BFD18B1F8
:1049580002280CBF0120022008BD00BF0A06D0F8BB
:10496800983206D4C1EBC10103EB810393F8FE0131
:10497800704701F07F01C1EBC10103EB810393F89C
:104988003E00704708B5D0F8980203F003FC18B150
:1049980002280CBF0120022008BD00BF08B5D0F8CE
:1049A800980203F073FC18B102280CBF0120022002
:1049B80008BD00BF08B5D0F8980203F03FFC18B155
:1049C80002280CBF0120022008BD00BFD0F8C00299
:1049D80007F012BFD0F8C00207F026BFD0F8C00217
:1049E80007F02EBF704700BFD0F8C00207F014BF11
:1049F800D0F8C00207F014BF08B5D0F8D00302F011
:104A080037FD18B102280CBF0120022008BD00BFE5
:104A1800024B027853F82200704700BF340B01089C
:104A2800024B427833F81200704700BF140B01089C
:104A38008CB00A2814D8DFE800F023313F4D5B69B9
:104A48007785930615004D4BD3F8E02042F40072A9
:104A5800C3F8E020D3F8E03003F400730A930A9B0C
:104A68000CB07047454BD3F8E02042F48062C3F89D
:104A7800E020D3F8E03003F480630B930B9BEFE75F
:104A88003E4BD3F8E02042F00102C3F8E020D3F80F
:104A9800E03003F001030193019BE1E7374BD3F8C2
:104AA800E02042F00202C3F8E020D3F8E03003F03F
:104AB80002030293029BD3E7304BD3F8E02042F085
:104AC8000402C3F8E020D3F8E03003F004030393B2
:104AD800039BC5E7294BD3F8E02042F00802C3F84E
:104AE800E020D3F8E03003F008030493049BB7E711
:104AF800224BD3F8E02042F01002C3F8E020D3F8AC
:104B0800E03003F010030593059BA9E71B4BD3F88E
:104B1800E02042F02002C3F8E020D3F8E03003F0B0
:104B280020030693069B9BE7144BD3F8E02042F042
:104B38004002C3F8E020D3F8E03003F040030793C5
:104B4800079B8DE70D4BD3F8E02042F08002C3F8B5
:104B5800E020D3F8E03003F080030893089B7FE758
:104B6800064BD3F8E02042F48072C3F8E020D3F873
:104B7800E03003F480730993099B71E700440258FD
:104B8800704700BF0F4B1B780BB90120704710B559
:104B980004464FF47A700C4AB0FBF3F31068B0FB8C
:104BA800F3F000F073FE0F2C00D808B1012010BDFF
:104BB800002221464FF0FF3000F00CFE034B00208E
:104BC8001C6010BDA4000024A0000024A80000243C
:104BD80038B50320124D00F0EBFD124C04F0BEFB7B
:104BE800114A12499369C3F30323CB5C03F01F03F3
:104BF80020FA03F30E202B60926902F00F028A5C00
:104C080002F01F02D3402360FFF7BCFF10B101245C
:104C1800204638BD0446FFF7B3FF204638BD00BF25
:104C2800A00000249C00002400440258040B010842
:104C3800034A044B11681B780B441360704700BF8C
:104C480054190024A4000024014B1868704700BFC1
:104C58005419002438B50446FFF7F6FF0546631CCF
:104C680002D0044B1B781C44FFF7EEFF401BA04208
:104C7800FAD338BDA4000024014B1868000C704713
:104C88000010005C704700BF806B08B5FFF7FAFFA3
:104C980008BD00BF836B5A6D12F0500F5A6D10B5E6
:104CA8001DD1196842F400725A650A6812F0080F9B
:104CB800CA681BD012F4406F0DD1CA6894040AD494
:104CC8005A6D22F480725A655A6DD10403D45A6D14
:104CD80042F001025A651846FDF770FF10BDD20672
:104CE8000AD4DB6CBDE81040DB6C18479007E7D0AE
:104CF8001846FDF763FFF1E71846FDF7EDFF10BD15
:104D0800806B08B5436D43F040034365836D43F002
:104D180004038365FDF7E0FF08BD00BFF0B500227E
:104D280083B0019290F85020012A00F0F5800346E4
:104D380001201A6883F850009468640754D40C68FA
:104D4800C4F31305C4F3846E002D40F09E8000FA6E
:104D58000EF0D5694C6828431F254FEA941CD06192
:104D680004F01F000CF00C0402F1300C0EFA00FEE7
:104D780085405CF8040020EA050040EA0E004CF883
:104D88000400906810F0040F906801D1070735D52A
:104D98009068C60714D4CE68086806F01807B64CA1
:104DA800D2F8C050FC40C0F31307044025EA0705B9
:104DB8002C43C2F8C040B14CA64271D0002801DB98
:104DC800002016E0AE498A4204D001F580718A427B
:104DD80040F0C180AB48AA49AB4A806889689268AC
:104DE800D20701D4CF07EBD55A6D012042F020023B
:104DF8005A65002283F8502003B0F0BD0C6802F118
:104E0800140C4FF0070E8E68E50DC4F3045405F03A
:104E180004050EFA04FE06FA04F45CF8050020EA1C
:104E28000E0020434CF8050098484D69006800F0D2
:104E38007040B0F1805FD0682DD010F0100FD068AE
:104E480029D0400800F0080085400E690868042E43
:104E580065D002F1600C00F0F8445CF8260000F020
:104E68000040204328434CF826004C7E0D69A4F1ED
:104E780001045CF82500B4FA84F420F000406409C9
:104E880040EAC4704CF8250082E794FAA4F4B4FA16
:104E980084F4A0405DE7C0F3820040008540D4E779
:104EA800002F79D090FAA0F4B4FA84F4013404F015
:104EB8001F04092C00F2938090FAA0F4B4FA84F449
:104EC80090FAA0F5B5FA85F5013401260135A40656
:104ED80005F01F0504F0F84406FA05F52C4390FA8E
:104EE800A0F0B0FA80F0304400F01F0000EB400062
:104EF8000005044302F114060727E50DC4F3045422
:104F080005F00405A740705920EA07008F68A740FC
:104F180038437051086851E7022003B0F0BD156EA0
:104F2800840605F0F845B5EB806F4ED0506E00F062
:104F3800F840844244D0906E00F0F840844249D052
:104F4800D06E00F0F84084427FF422AFD06E20F09B
:104F58000040D0661CE74E4C4E49A6688D68ED07A8
:104F68003FF542AF4C4D06F0E077A84262D04B4D7A
:104F7800A84251D04A4DA8427FF422AF70023FF5B3
:104F88001FAF8A427FF41CAFA26822F0E0723A4356
:104F980042F48002A26013E7800E0124013000F081
:104FA8001F058006AC4000F0F840092D44EA0004D3
:104FB80005EB45009CD91E38000540F0007098E7C5
:104FC800506E20F000405066B5E7106E20F00040AB
:104FD8001066ABE7906E20F000409066B0E790FA5C
:104FE800A0F4B4FA84F490FAA0F5B5FA85F5013482
:104FF80001260135A40605F01F0504F0F84406FA59
:1050080005F52C4390FAA0F0B0FA80F0304400F097
:105018001F0000EB4000CEE7F5013FF5D1AE8A4214
:105028007FF4CEAEA26822F0E0723A4342F080727A
:10503800A260C5E636023FF5C3AE8A427FF4C0AE31
:10504800A268184922F0E0723A4342F40002A260D2
:105058000A6815499209A1FB0212920952000192AD
:10506800019A002A3FF4ACAE019A013A0192019AE2
:10507800002AF9D1A4E600BFFFFF0F000000FF4798
:105088000020024000230240002102400010005C82
:105098000063025800600258000084CB000052C729
:1050A8000000B8CFA0000024632D3E0503689A686D
:1050B800D20701D5002070479968234A114270B57C
:1050C800044609D0636D012043F010036365A36DA6
:1050D80043F00103A36570BD99681C4A0A4042F079
:1050E80001029A60FFF7B0FD2368194A054693420A
:1050F80021D002F5807293421DD002F1C05202F510
:1051080084429268114E0AE09A68324042F00102E5
:105118009A60FFF799FD401B0228D3D823681A68C4
:10512800D2070FD49A68D107EED5FFF78DFD401B43
:105138000228F3D9C6E7074A9268D006E2D0064AA1
:105148009342DFD1002070BD3F000080C0FFFF7F89
:105158000020024000230240002102402DE9F041D6
:10516800374B044600680E46174698421CD003F594
:105178008073984218D0334B9B68856815F00405F6
:1051880018D194F85020012A14D003F01F0840F2D7
:105198002123012023FA08F384F8500003400CD19E
:1051A80084F85030BDE8F081274B9B68856815F07E
:1051B8000405E6D00220BDE8F0812046FFF776FF1F
:1051C800002838D1626D214B2168134043F4807365
:1051D8006365B8F1000F02D01D4B994203D0636D8F
:1051E80023F480136365636D13F4805326D0A36D95
:1051F80023F00603A365E06C3B46164D324640316A
:10520800C563154D0564154DC5641C2541F8405C02
:10521800002584F8505051F83C5C45F0100541F8E1
:105228003C5C00F03DFE22680D4B91680B4043F05A
:1052380004039360BFE784F85050BCE7A365DAE73E
:10524800002002400063025800230240FEF0FFFFE6
:10525800002102409D4C0008914C0008094D0008AF
:10526800C0FFFF7F38B503689A68910702D59B682D
:10527800002038BD9A68D207FAD59A68044602F029
:105288000D02012A09D0636D012043F01003636504
:10529800A36D43F00103A36538BD98680321094A4B
:1052A800024042F002029A601960FFF7CDFC054601
:1052B80023689B68DB07DBD5FFF7C6FC401B022889
:1052C800F6D9E0E7C0FFFF7F38B5554A04460368C2
:1052D800934224D002F58072934220D0514B9B68B0
:1052E80013F4403F20D004F0E3F963680546B3F5B2
:1052F800003F75D0B3F5403F7AD0B3F5803F6FD00B
:10530800FFF7BAFC41F2030398422CD8464A2368B7
:10531800954248D99A6842F480729A6038BD434BE6
:105328009B6813F4403FDED14FF4002005F030FBBA
:1053380063680546B3F5101F58D027D8B3F5E01FAA
:1053480052D057D8B3F5801F08D061D8B3F5002FD5
:1053580004D023F40022B2F5802FD1D19B0C5B003E
:10536800B5FBF3F5CCE7324A2368954226D9314A92
:1053780031492A448A422CD9304A31492A448A423E
:105388003FD99A6842F440729A6038BDB3F5201F3D
:1053980035D0B3F5301FB3D1FFF76EFC41F20303EC
:1053A800984205D823689A6822F480729A6038BDBA
:1053B8001F4B2A0AB3EB152F05D323689A6822F4EA
:1053C80040729A6038BD1B4B1B4913448B422368BB
:1053D80017D89A6822F4407242F480729A6038BDF5
:1053E8001B0CB5FBF3F58BE7050989E7850987E70A
:1053F800850885E7B3F5001F82D1450980E7C5090F
:105408007EE79A6822F4407242F400729A6038BDCE
:10541800B3F5A01FA2D0B3F5C01F9FD070E700BF9F
:105428000020024000630258002D31010023024091
:10543800105E5F00EFA1A0FF0F5E5F00DF4341FF3A
:105448001FBCBE0030B5002383B00193002800F0D4
:10545800A880456D0446002D00F0A9802268936855
:10546800990003D59168704B0B4093609368DB00FB
:1054780015D46E4B90686E491B6801406D489B09B6
:1054880041F08051A0FB030391609B090193019BAC
:105498002BB1019B013B0193019B002BF9D1936830
:1054A800DD0000F18280636D012543F01003636520
:1054B800A36D2B43A365936813F0040F636D6CD140
:1054C800D8066AD4636D23F4817343F002036365DD
:1054D8009368D9070CD4584B9A4200F0818003F5A1
:1054E80080739A427CD0554B9B68D90740F18980DC
:1054F800FFF7C2FB41F20303A1689842237F5CD8FF
:1055080094F815C01A04206B42EA4C3202430A434D
:10551800012B03D1236A013B42EA4342636A23B168
:1055280003F47873A16A0B431A4323684449D86883
:1055380001401143D9609A6812F0040F9A681CD18F
:1055480012071AD4D8683F4A217D024042EA8132C4
:10555800E16A0A43DA6094F83820012A53D01A69BC
:1055680022F001021A611A692046616B22F070422A
:105578000A431A61FFF7A8FE2368E268012A27D0C8
:105588001A6B22F00F021A63636D284623F0030397
:1055980043F00103636503B030BD636D43F010034E
:1055A80063650125284603B030BD002583E7FDF774
:1055B800B5FAA56584F8505050E71029A0D1617D4F
:1055C8001A0442EA4132216B0A4342F01C029FE767
:1055D800196BA26921F00F01013A0A431A63D3E754
:1055E800154A194B92689B68DB0781D4D0073FF5B1
:1055F8007FAF164A9368616823F47C130B4393606A
:1056080076E7134AF6E7D4E9102118690A431149E5
:1056180001400A43A16C0A43E16B42EA014242F0AD
:1056280001021A619FE700BFC0FFFF5FA0000024CE
:10563800C0FFFF6F632D3E05002002400060025846
:1056480003C0F0FFFCBFFFFF00210240002302401F
:10565800006302581EF800FCF0B5002383B00193E4
:1056680090F85030012B40D0012304460E461546D1
:1056780080F85030FFF7F6FDE8B9676D05F0804215
:105688001B4B06F4803125683B4043F002036365F9
:10569800184BAE68334013430B4343F00043AB60F1
:1056A800AB68154A002B0FDB636D23F0030343F04F
:1056B8000103636503E0636D43F010036365002332
:1056C80084F8503003B0F0BD019B01330193019B76
:1056D8009342E5D9636D0022012023F0120384F878
:1056E800502043F010036365ECE7022003B0F0BDDF
:1056F800FDEEFFFFC0FFFE3FFF955A5590F8502082
:10570800012A36D003460120F0B41A68244C83F8E5
:105718005000A24208D05A6D002142F0200283F8BE
:1057280050105A65F0BC70471E48846864070AD553
:1057380092685A6D012042F020025A65002283F8CF
:105748005020F0BC704794686607F2D40C6894B98E
:1057580015498C6824F440448C6094688268D507A5
:1057680005D4E20703D48868104A02408A60002002
:10577800E4E7022070470C4E4F68B56825F44045B1
:105788003D43B56095688268D707F0D4E807EED442
:105798008A68B0681443054A02401443B460E6E7D7
:1057A800002002400021024000230240E0F0FFFFF9
:1057B80006494FF6FF0C0002054BCA6800F4E0608A
:1057C80002EA0C0210430343CB60704700ED00E08F
:1057D8000000FA051A4BDB68C3F3022300B5C3F1D6
:1057E800070E03F1040CBEF1040F28BF4FF0040E9E
:1057F800BCF1060F1AD9A3F1030C4FF0FF3303FADB
:105808000CF322EA03024FF0FF33002803FA0EF3E9
:1058180021EA030303FA0CF343EA02034FEA0313F2
:10582800DBB206DB074A13545DF804FB00229446FA
:10583800E9E700F00F00044A13545DF804FB00BFC9
:1058480000ED00E000E400E014ED00E0002807DBD4
:1058580000F01F0101234009024A8B4042F8203022
:10586800704700BF00E100E000280CDB430901227B
:1058780000F01F0004492033824041F82320BFF381
:105888004F8FBFF36F8F704700E100E0431EB3F105
:10589800807F01D3012070474FF0E02200200549A6
:1058A8004FF0F00C5361072381F823C09061136116
:1058B800704700BF00ED00E0BFF35F8F044B00218D
:1058C8005A6A22F480325A62C3F89410704700BFB3
:1058D80000ED00E0064B40F00100C3F894005A6A5E
:1058E80042F480325A62BFF34F8FBFF36F8F704715
:1058F80000ED00E0174A4378C2F89830017821B3E8
:10590800436800B5C2F89C30C37A90F80CC01B06F7
:1059180090F80FE043EA0C7390F80AC00B43817BC0
:1059280043EACC4390F80DC043EA8C4390F809C091
:1059380043EA4143017A43EA0E4343EA0C2343EA2C
:105948004103C2F8A0305DF804FBC2F89C10C2F80D
:10595800A010704700ED00E0704700BF08B5FFF7E2
:10596800FBFF08BD3649024603688B4233D0183125
:10597800591AB1FA81F1490969BB324883423ED0CC
:10598800183083423ED01830834234D018308342D6
:105998003BD0183083423ED0183083422AD000F5DD
:1059A8005670834235D028498B4231D018318B420A
:1059B80034D018318B4234D018318B4234D018315E
:1059C8008B4234D018318B4234D018318B4234D0CA
:1059D80023F0FF0011E0DBB21C491D48103BA1FB7E
:1059E800031310B41B091B4CE15C5DF8044BC2E9BE
:1059F8001601704716211848D16590657047102127
:105A08001348F9E716211248F6E706211248F3E78A
:105A180006211248F0E710210F48EDE710210F4842
:105A2800EAE716210D48E7E700210D48E4E70621DB
:105A38000B48E1E710210A48DEE716210848DBE7B2
:105A4800100002404000024028040240ABAAAAAA63
:105A580000000240640B01080400024000040240F8
:105A6800040402400268284B284930B4284D294CC8
:105A7800AA4218BF9A420CBF012300238A4208BFDA
:105A880043F001032831A24208BF43F00103283440
:105A98008A4208BF43F001032831A24208BF43F0FD
:105AA80001038A4208BF43F00103D1B213B91A4B6C
:105AB8009A4211D1A1F10803184C194A0121A4FBFB
:105AC8000343184C1D0902EB1313A9409B00816680
